{
  "contractName": "ArmorAuction",
  "abi": [
    {
      "inputs": [],
      "stateMutability": "payable",
      "type": "constructor"
    },
    {
      "anonymous": false,
      "inputs": [
        {
          "indexed": true,
          "internalType": "address",
          "name": "owner",
          "type": "address"
        },
        {
          "indexed": true,
          "internalType": "address",
          "name": "approved",
          "type": "address"
        },
        {
          "indexed": true,
          "internalType": "uint256",
          "name": "tokenId",
          "type": "uint256"
        }
      ],
      "name": "Approval",
      "type": "event"
    },
    {
      "anonymous": false,
      "inputs": [
        {
          "indexed": true,
          "internalType": "address",
          "name": "owner",
          "type": "address"
        },
        {
          "indexed": true,
          "internalType": "address",
          "name": "operator",
          "type": "address"
        },
        {
          "indexed": false,
          "internalType": "bool",
          "name": "approved",
          "type": "bool"
        }
      ],
      "name": "ApprovalForAll",
      "type": "event"
    },
    {
      "anonymous": false,
      "inputs": [
        {
          "indexed": true,
          "internalType": "address",
          "name": "from",
          "type": "address"
        },
        {
          "indexed": true,
          "internalType": "address",
          "name": "to",
          "type": "address"
        },
        {
          "indexed": true,
          "internalType": "uint256",
          "name": "tokenId",
          "type": "uint256"
        }
      ],
      "name": "Transfer",
      "type": "event"
    },
    {
      "anonymous": false,
      "inputs": [
        {
          "indexed": false,
          "internalType": "address",
          "name": "winner",
          "type": "address"
        },
        {
          "indexed": false,
          "internalType": "uint256",
          "name": "his_price",
          "type": "uint256"
        },
        {
          "indexed": false,
          "internalType": "bool",
          "name": "successed",
          "type": "bool"
        }
      ],
      "name": "auction_terminated",
      "type": "event"
    },
    {
      "anonymous": false,
      "inputs": [
        {
          "indexed": false,
          "internalType": "address",
          "name": "player",
          "type": "address"
        },
        {
          "indexed": false,
          "internalType": "uint256",
          "name": "startprice",
          "type": "uint256"
        },
        {
          "indexed": false,
          "internalType": "uint256",
          "name": "ID",
          "type": "uint256"
        },
        {
          "indexed": false,
          "internalType": "uint256",
          "name": "timestart",
          "type": "uint256"
        },
        {
          "indexed": false,
          "internalType": "uint256",
          "name": "timeend",
          "type": "uint256"
        }
      ],
      "name": "start_auction",
      "type": "event"
    },
    {
      "anonymous": false,
      "inputs": [
        {
          "indexed": false,
          "internalType": "address",
          "name": "bidder",
          "type": "address"
        },
        {
          "indexed": false,
          "internalType": "uint256",
          "name": "his_price",
          "type": "uint256"
        },
        {
          "indexed": false,
          "internalType": "uint256",
          "name": "ID",
          "type": "uint256"
        }
      ],
      "name": "success_bid",
      "type": "event"
    },
    {
      "inputs": [
        {
          "internalType": "address",
          "name": "to",
          "type": "address"
        },
        {
          "internalType": "uint256",
          "name": "tokenId",
          "type": "uint256"
        }
      ],
      "name": "approve",
      "outputs": [],
      "stateMutability": "nonpayable",
      "type": "function"
    },
    {
      "inputs": [
        {
          "internalType": "address",
          "name": "owner",
          "type": "address"
        }
      ],
      "name": "balanceOf",
      "outputs": [
        {
          "internalType": "uint256",
          "name": "",
          "type": "uint256"
        }
      ],
      "stateMutability": "view",
      "type": "function"
    },
    {
      "inputs": [],
      "name": "contract_address",
      "outputs": [
        {
          "internalType": "address",
          "name": "",
          "type": "address"
        }
      ],
      "stateMutability": "view",
      "type": "function"
    },
    {
      "inputs": [],
      "name": "game_owner",
      "outputs": [
        {
          "internalType": "address payable",
          "name": "",
          "type": "address"
        }
      ],
      "stateMutability": "view",
      "type": "function"
    },
    {
      "inputs": [
        {
          "internalType": "uint256",
          "name": "tokenId",
          "type": "uint256"
        }
      ],
      "name": "getApproved",
      "outputs": [
        {
          "internalType": "address",
          "name": "",
          "type": "address"
        }
      ],
      "stateMutability": "view",
      "type": "function"
    },
    {
      "inputs": [
        {
          "internalType": "address",
          "name": "owner",
          "type": "address"
        },
        {
          "internalType": "address",
          "name": "operator",
          "type": "address"
        }
      ],
      "name": "isApprovedForAll",
      "outputs": [
        {
          "internalType": "bool",
          "name": "",
          "type": "bool"
        }
      ],
      "stateMutability": "view",
      "type": "function"
    },
    {
      "inputs": [],
      "name": "name",
      "outputs": [
        {
          "internalType": "string",
          "name": "",
          "type": "string"
        }
      ],
      "stateMutability": "view",
      "type": "function"
    },
    {
      "inputs": [
        {
          "internalType": "uint256",
          "name": "tokenId",
          "type": "uint256"
        }
      ],
      "name": "ownerOf",
      "outputs": [
        {
          "internalType": "address",
          "name": "",
          "type": "address"
        }
      ],
      "stateMutability": "view",
      "type": "function"
    },
    {
      "inputs": [
        {
          "internalType": "address",
          "name": "from",
          "type": "address"
        },
        {
          "internalType": "address",
          "name": "to",
          "type": "address"
        },
        {
          "internalType": "uint256",
          "name": "tokenId",
          "type": "uint256"
        }
      ],
      "name": "safeTransferFrom",
      "outputs": [],
      "stateMutability": "nonpayable",
      "type": "function"
    },
    {
      "inputs": [
        {
          "internalType": "address",
          "name": "from",
          "type": "address"
        },
        {
          "internalType": "address",
          "name": "to",
          "type": "address"
        },
        {
          "internalType": "uint256",
          "name": "tokenId",
          "type": "uint256"
        },
        {
          "internalType": "bytes",
          "name": "_data",
          "type": "bytes"
        }
      ],
      "name": "safeTransferFrom",
      "outputs": [],
      "stateMutability": "nonpayable",
      "type": "function"
    },
    {
      "inputs": [
        {
          "internalType": "address",
          "name": "operator",
          "type": "address"
        },
        {
          "internalType": "bool",
          "name": "approved",
          "type": "bool"
        }
      ],
      "name": "setApprovalForAll",
      "outputs": [],
      "stateMutability": "nonpayable",
      "type": "function"
    },
    {
      "inputs": [
        {
          "internalType": "bytes4",
          "name": "interfaceId",
          "type": "bytes4"
        }
      ],
      "name": "supportsInterface",
      "outputs": [
        {
          "internalType": "bool",
          "name": "",
          "type": "bool"
        }
      ],
      "stateMutability": "view",
      "type": "function"
    },
    {
      "inputs": [],
      "name": "symbol",
      "outputs": [
        {
          "internalType": "string",
          "name": "",
          "type": "string"
        }
      ],
      "stateMutability": "view",
      "type": "function"
    },
    {
      "inputs": [
        {
          "internalType": "uint256",
          "name": "index",
          "type": "uint256"
        }
      ],
      "name": "tokenByIndex",
      "outputs": [
        {
          "internalType": "uint256",
          "name": "",
          "type": "uint256"
        }
      ],
      "stateMutability": "view",
      "type": "function"
    },
    {
      "inputs": [
        {
          "internalType": "address",
          "name": "owner",
          "type": "address"
        },
        {
          "internalType": "uint256",
          "name": "index",
          "type": "uint256"
        }
      ],
      "name": "tokenOfOwnerByIndex",
      "outputs": [
        {
          "internalType": "uint256",
          "name": "",
          "type": "uint256"
        }
      ],
      "stateMutability": "view",
      "type": "function"
    },
    {
      "inputs": [
        {
          "internalType": "uint256",
          "name": "tokenId",
          "type": "uint256"
        }
      ],
      "name": "tokenURI",
      "outputs": [
        {
          "internalType": "string",
          "name": "",
          "type": "string"
        }
      ],
      "stateMutability": "view",
      "type": "function"
    },
    {
      "inputs": [],
      "name": "totalSupply",
      "outputs": [
        {
          "internalType": "uint256",
          "name": "",
          "type": "uint256"
        }
      ],
      "stateMutability": "view",
      "type": "function"
    },
    {
      "inputs": [
        {
          "internalType": "address",
          "name": "from",
          "type": "address"
        },
        {
          "internalType": "address",
          "name": "to",
          "type": "address"
        },
        {
          "internalType": "uint256",
          "name": "tokenId",
          "type": "uint256"
        }
      ],
      "name": "transferFrom",
      "outputs": [],
      "stateMutability": "nonpayable",
      "type": "function"
    },
    {
      "inputs": [
        {
          "internalType": "string",
          "name": "weapon_name",
          "type": "string"
        }
      ],
      "name": "applyWeapon",
      "outputs": [
        {
          "internalType": "uint256",
          "name": "",
          "type": "uint256"
        }
      ],
      "stateMutability": "payable",
      "type": "function"
    },
    {
      "inputs": [
        {
          "internalType": "uint256",
          "name": "id",
          "type": "uint256"
        }
      ],
      "name": "is_On_Auction",
      "outputs": [
        {
          "internalType": "bool",
          "name": "",
          "type": "bool"
        }
      ],
      "stateMutability": "view",
      "type": "function"
    },
    {
      "inputs": [
        {
          "internalType": "uint256",
          "name": "id",
          "type": "uint256"
        }
      ],
      "name": "showBelongings",
      "outputs": [
        {
          "internalType": "address[]",
          "name": "owners",
          "type": "address[]"
        }
      ],
      "stateMutability": "view",
      "type": "function"
    },
    {
      "inputs": [],
      "name": "see_NFTS",
      "outputs": [
        {
          "internalType": "uint256[]",
          "name": "",
          "type": "uint256[]"
        }
      ],
      "stateMutability": "view",
      "type": "function"
    },
    {
      "inputs": [
        {
          "internalType": "uint256",
          "name": "ID",
          "type": "uint256"
        }
      ],
      "name": "see_NFT_info",
      "outputs": [
        {
          "internalType": "string",
          "name": "",
          "type": "string"
        },
        {
          "internalType": "uint256",
          "name": "",
          "type": "uint256"
        }
      ],
      "stateMutability": "view",
      "type": "function"
    },
    {
      "inputs": [],
      "name": "see_Profit",
      "outputs": [
        {
          "internalType": "uint256",
          "name": "",
          "type": "uint256"
        }
      ],
      "stateMutability": "view",
      "type": "function"
    },
    {
      "inputs": [
        {
          "internalType": "uint256",
          "name": "_money",
          "type": "uint256"
        }
      ],
      "name": "money_Feedback",
      "outputs": [],
      "stateMutability": "nonpayable",
      "type": "function"
    },
    {
      "inputs": [
        {
          "internalType": "uint256",
          "name": "weapon_Id",
          "type": "uint256"
        },
        {
          "internalType": "uint256",
          "name": "original_price",
          "type": "uint256"
        },
        {
          "internalType": "uint256",
          "name": "ddl",
          "type": "uint256"
        }
      ],
      "name": "startAuction",
      "outputs": [],
      "stateMutability": "nonpayable",
      "type": "function"
    },
    {
      "inputs": [],
      "name": "seeAllAuction",
      "outputs": [
        {
          "internalType": "uint256[]",
          "name": "",
          "type": "uint256[]"
        }
      ],
      "stateMutability": "view",
      "type": "function"
    },
    {
      "inputs": [
        {
          "internalType": "uint256",
          "name": "ID",
          "type": "uint256"
        }
      ],
      "name": "see_Auction_Info",
      "outputs": [
        {
          "internalType": "uint256",
          "name": "",
          "type": "uint256"
        },
        {
          "internalType": "address",
          "name": "",
          "type": "address"
        },
        {
          "internalType": "address",
          "name": "",
          "type": "address"
        },
        {
          "internalType": "string",
          "name": "",
          "type": "string"
        },
        {
          "internalType": "uint256",
          "name": "",
          "type": "uint256"
        },
        {
          "internalType": "uint256",
          "name": "",
          "type": "uint256"
        }
      ],
      "stateMutability": "view",
      "type": "function"
    },
    {
      "inputs": [
        {
          "internalType": "uint256",
          "name": "ID",
          "type": "uint256"
        }
      ],
      "name": "bidForWeapon",
      "outputs": [],
      "stateMutability": "payable",
      "type": "function"
    },
    {
      "inputs": [
        {
          "internalType": "uint256",
          "name": "weapon_Id",
          "type": "uint256"
        }
      ],
      "name": "claimAuction",
      "outputs": [],
      "stateMutability": "nonpayable",
      "type": "function"
    }
  ],
  "bytecode": "0x6080604052620186a0600f556040518060400160405280600881526020017f4c4f5244434f494e0000000000000000000000000000000000000000000000008152506040518060400160405280600381526020017f484359000000000000000000000000000000000000000000000000000000000081525081600090805190602001906200008f9291906200013b565b508060019080519060200190620000a89291906200013b565b50505033600a60006101000a81548173ffffffffffffffffffffffffffffffffffffffff021916908373ffffffffffffffffffffffffffffffffffffffff1602179055506000600e8190555030600b60006101000a81548173ffffffffffffffffffffffffffffffffffffffff021916908373ffffffffffffffffffffffffffffffffffffffff16021790555062000250565b8280546200014990620001eb565b90600052602060002090601f0160209004810192826200016d5760008555620001b9565b82601f106200018857805160ff1916838001178555620001b9565b82800160010185558215620001b9579182015b82811115620001b85782518255916020019190600101906200019b565b5b509050620001c89190620001cc565b5090565b5b80821115620001e7576000816000905550600101620001cd565b5090565b600060028204905060018216806200020457607f821691505b602082108114156200021b576200021a62000221565b5b50919050565b7f4e487b7100000000000000000000000000000000000000000000000000000000600052602260045260246000fd5b61535280620002606000396000f3fe6080604052600436106101cd5760003560e01c806391e078bb116100f7578063bb78ca4f11610095578063e5456b1811610064578063e5456b18146106cb578063e7cf0a53146106f6578063e9374b7314610721578063e985e9c514610763576101cd565b8063bb78ca4f14610619578063c87b56dd14610649578063e0b36f4b14610686578063e1f13c6d146106af576101cd565b80639aafc6c9116100d15780639aafc6c914610560578063a22cb46514610589578063abef65c7146105b2578063b88d4fde146105f0576101cd565b806391e078bb146104e157806395d89b411461050a578063966b351414610535576101cd565b8063266f1c0b1161016f5780634f6ccce71161013e5780634f6ccce7146103ed5780636352211e1461042a57806370a08231146104675780637b213432146104a4576101cd565b8063266f1c0b146103315780632f745c591461035c57806339ea3c991461039957806342842e0e146103c4576101cd565b8063095ea7b3116101ab578063095ea7b3146102775780630adc7d8c146102a057806318160ddd146102dd57806323b872dd14610308576101cd565b806301ffc9a7146101d257806306fdde031461020f578063081812fc1461023a575b600080fd5b3480156101de57600080fd5b506101f960048036038101906101f49190613a9c565b6107a0565b60405161020691906149b3565b60405180910390f35b34801561021b57600080fd5b5061022461081a565b60405161023191906149ce565b60405180910390f35b34801561024657600080fd5b50610261600480360381019061025c9190613b2f565b6108ac565b60405161026e9190614848565b60405180910390f35b34801561028357600080fd5b5061029e60048036038101906102999190613a60565b610931565b005b3480156102ac57600080fd5b506102c760048036038101906102c29190613b2f565b610a49565b6040516102d4919061496f565b60405180910390f35b3480156102e957600080fd5b506102f2610aea565b6040516102ff9190614dc0565b60405180910390f35b34801561031457600080fd5b5061032f600480360381019061032a919061395a565b610af7565b005b34801561033d57600080fd5b50610346610b57565b6040516103539190614dc0565b60405180910390f35b34801561036857600080fd5b50610383600480360381019061037e9190613a60565b610b6c565b6040516103909190614dc0565b60405180910390f35b3480156103a557600080fd5b506103ae610c11565b6040516103bb9190614863565b60405180910390f35b3480156103d057600080fd5b506103eb60048036038101906103e6919061395a565b610c37565b005b3480156103f957600080fd5b50610414600480360381019061040f9190613b2f565b610c57565b6040516104219190614dc0565b60405180910390f35b34801561043657600080fd5b50610451600480360381019061044c9190613b2f565b610cee565b60405161045e9190614848565b60405180910390f35b34801561047357600080fd5b5061048e600480360381019061048991906138f5565b610da0565b60405161049b9190614dc0565b60405180910390f35b3480156104b057600080fd5b506104cb60048036038101906104c69190613b2f565b610e58565b6040516104d891906149b3565b60405180910390f35b3480156104ed57600080fd5b5061050860048036038101906105039190613b58565b610e87565b005b34801561051657600080fd5b5061051f61110c565b60405161052c91906149ce565b60405180910390f35b34801561054157600080fd5b5061054a61119e565b6040516105579190614848565b60405180910390f35b34801561056c57600080fd5b5061058760048036038101906105829190613b2f565b6111c4565b005b34801561059557600080fd5b506105b060048036038101906105ab9190613a24565b6117a2565b005b3480156105be57600080fd5b506105d960048036038101906105d49190613b2f565b611923565b6040516105e79291906149f0565b60405180910390f35b3480156105fc57600080fd5b50610617600480360381019061061291906139a9565b611a5b565b005b610633600480360381019061062e9190613aee565b611abd565b6040516106409190614dc0565b60405180910390f35b34801561065557600080fd5b50610670600480360381019061066b9190613b2f565b611c39565b60405161067d91906149ce565b60405180910390f35b34801561069257600080fd5b506106ad60048036038101906106a89190613b2f565b611ce0565b005b6106c960048036038101906106c49190613b2f565b611df4565b005b3480156106d757600080fd5b506106e0612103565b6040516106ed9190614991565b60405180910390f35b34801561070257600080fd5b5061070b6121fb565b6040516107189190614991565b60405180910390f35b34801561072d57600080fd5b5061074860048036038101906107439190613b2f565b61232f565b60405161075a96959493929190614ddb565b60405180910390f35b34801561076f57600080fd5b5061078a6004803603810190610785919061391e565b6125ac565b60405161079791906149b3565b60405180910390f35b60007f780e9d63000000000000000000000000000000000000000000000000000000007bffffffffffffffffffffffffffffffffffffffffffffffffffffffff1916827bffffffffffffffffffffffffffffffffffffffffffffffffffffffff19161480610813575061081282612640565b5b9050919050565b6060600080546108299061510c565b80601f01602080910402602001604051908101604052809291908181526020018280546108559061510c565b80156108a25780601f10610877576101008083540402835291602001916108a2565b820191906000526020600020905b81548152906001019060200180831161088557829003601f168201915b5050505050905090565b60006108b782612722565b6108f6576040517f08c379a00000000000000000000000000000000000000000000000000000000081526004016108ed90614c60565b60405180910390fd5b6004600083815260200190815260200160002060009054906101000a900473ffffffffffffffffffffffffffffffffffffffff169050919050565b600061093c82610cee565b90508073ffffffffffffffffffffffffffffffffffffffff168373ffffffffffffffffffffffffffffffffffffffff1614156109ad576040517f08c379a00000000000000000000000000000000000000000000000000000000081526004016109a490614ce0565b60405180910390fd5b8073ffffffffffffffffffffffffffffffffffffffff166109cc61278e565b73ffffffffffffffffffffffffffffffffffffffff1614806109fb57506109fa816109f561278e565b6125ac565b5b610a3a576040517f08c379a0000000000000000000000000000000000000000000000000000000008152600401610a3190614b80565b60405180910390fd5b610a448383612796565b505050565b606060156000838152602001908152602001600020805480602002602001604051908101604052809291908181526020018280548015610ade57602002820191906000526020600020905b8160009054906101000a900473ffffffffffffffffffffffffffffffffffffffff1673ffffffffffffffffffffffffffffffffffffffff1681526020019060010190808311610a94575b50505050509050919050565b6000600880549050905090565b610b08610b0261278e565b8261284f565b610b47576040517f08c379a0000000000000000000000000000000000000000000000000000000008152600401610b3e90614d20565b60405180910390fd5b610b5283838361292d565b505050565b6000600e5447610b679190615010565b905090565b6000610b7783610da0565b8210610bb8576040517f08c379a0000000000000000000000000000000000000000000000000000000008152600401610baf90614a20565b60405180910390fd5b600660008473ffffffffffffffffffffffffffffffffffffffff1673ffffffffffffffffffffffffffffffffffffffff168152602001908152602001600020600083815260200190815260200160002054905092915050565b600a60009054906101000a900473ffffffffffffffffffffffffffffffffffffffff1681565b610c5283838360405180602001604052806000815250611a5b565b505050565b6000610c61610aea565b8210610ca2576040517f08c379a0000000000000000000000000000000000000000000000000000000008152600401610c9990614d60565b60405180910390fd5b60088281548110610cdc577f4e487b7100000000000000000000000000000000000000000000000000000000600052603260045260246000fd5b90600052602060002001549050919050565b6000806002600084815260200190815260200160002060009054906101000a900473ffffffffffffffffffffffffffffffffffffffff169050600073ffffffffffffffffffffffffffffffffffffffff168173ffffffffffffffffffffffffffffffffffffffff161415610d97576040517f08c379a0000000000000000000000000000000000000000000000000000000008152600401610d8e90614c00565b60405180910390fd5b80915050919050565b60008073ffffffffffffffffffffffffffffffffffffffff168273ffffffffffffffffffffffffffffffffffffffff161415610e11576040517f08c379a0000000000000000000000000000000000000000000000000000000008152600401610e0890614be0565b60405180910390fd5b600360008373ffffffffffffffffffffffffffffffffffffffff1673ffffffffffffffffffffffffffffffffffffffff168152602001908152602001600020549050919050565b600080601060008481526020019081526020016000205414610e7d5760019050610e82565b600090505b919050565b82610e9181610cee565b73ffffffffffffffffffffffffffffffffffffffff163373ffffffffffffffffffffffffffffffffffffffff1614610efe576040517f08c379a0000000000000000000000000000000000000000000000000000000008152600401610ef590614aa0565b60405180910390fd5b60011515610f0c33306125ac565b151514610f4e576040517f08c379a0000000000000000000000000000000000000000000000000000000008152600401610f4590614bc0565b60405180910390fd5b600073ffffffffffffffffffffffffffffffffffffffff166011600086815260200190815260200160002060009054906101000a900473ffffffffffffffffffffffffffffffffffffffff1673ffffffffffffffffffffffffffffffffffffffff1614610ff0576040517f08c379a0000000000000000000000000000000000000000000000000000000008152600401610fe790614da0565b60405180910390fd5b603c8211611033576040517f08c379a000000000000000000000000000000000000000000000000000000000815260040161102a90614d80565b60405180910390fd5b826010600086815260200190815260200160002081905550336011600086815260200190815260200160002060006101000a81548173ffffffffffffffffffffffffffffffffffffffff021916908373ffffffffffffffffffffffffffffffffffffffff16021790555081426110a99190614f89565b6013600086815260200190815260200160002081905550600d805490506012600086815260200190815260200160002081905550600d84908060018154018082558091505060019003906000526020600020016000909190919091505550505050565b60606001805461111b9061510c565b80601f01602080910402602001604051908101604052809291908181526020018280546111479061510c565b80156111945780601f1061116957610100808354040283529160200191611194565b820191906000526020600020905b81548152906001019060200180831161117757829003601f168201915b5050505050905090565b600b60009054906101000a900473ffffffffffffffffffffffffffffffffffffffff1681565b6011600082815260200190815260200160002060009054906101000a900473ffffffffffffffffffffffffffffffffffffffff1673ffffffffffffffffffffffffffffffffffffffff163373ffffffffffffffffffffffffffffffffffffffff1614611265576040517f08c379a000000000000000000000000000000000000000000000000000000000815260040161125c90614c40565b60405180910390fd5b601360008281526020019081526020016000205442116112ba576040517f08c379a00000000000000000000000000000000000000000000000000000000081526004016112b190614ba0565b60405180910390fd5b6112c381610cee565b73ffffffffffffffffffffffffffffffffffffffff163373ffffffffffffffffffffffffffffffffffffffff16146114c2576112fe81610cee565b73ffffffffffffffffffffffffffffffffffffffff166108fc60106000848152602001908152602001600020549081150290604051600060405180830381858888f19350505050158015611356573d6000803e3d6000fd5b503073ffffffffffffffffffffffffffffffffffffffff166342842e0e61137c83610cee565b33846040518463ffffffff1660e01b815260040161139c9392919061487e565b600060405180830381600087803b1580156113b657600080fd5b505af11580156113ca573d6000803e3d6000fd5b505050506010600082815260200190815260200160002054600e60008282546113f39190615010565b9250508190555060156000828152602001908152602001600020339080600181540180825580915050600190039060005260206000200160009091909190916101000a81548173ffffffffffffffffffffffffffffffffffffffff021916908373ffffffffffffffffffffffffffffffffffffffff1602179055507ffa5a27563f7b1a10dc0b094db4bef22ffc5e9771b860362309a79c8ef666a60f33601060008481526020019081526020016000205460016040516114b593929190614901565b60405180910390a1611512565b7ffa5a27563f7b1a10dc0b094db4bef22ffc5e9771b860362309a79c8ef666a60f336010600084815260200190815260200160002054600060405161150993929190614901565b60405180910390a15b6000601060008381526020019081526020016000208190555060006011600083815260200190815260200160002060006101000a81548173ffffffffffffffffffffffffffffffffffffffff021916908373ffffffffffffffffffffffffffffffffffffffff160217905550603c601360008381526020019081526020016000208190555060006012600083815260200190815260200160002054905060006001600d805490506115c39190615010565b905080821461174f576000600d8381548110611608577f4e487b7100000000000000000000000000000000000000000000000000000000600052603260045260246000fd5b906000526020600020015490506000600d8381548110611651577f4e487b7100000000000000000000000000000000000000000000000000000000600052603260045260246000fd5b90600052602060002001549050600d8381548110611698577f4e487b7100000000000000000000000000000000000000000000000000000000600052603260045260246000fd5b9060005260206000200154600d85815481106116dd577f4e487b7100000000000000000000000000000000000000000000000000000000600052603260045260246000fd5b906000526020600020018190555081600d8481548110611726577f4e487b7100000000000000000000000000000000000000000000000000000000600052603260045260246000fd5b906000526020600020018190555083601260008381526020019081526020016000208190555050505b600d805480611787577f4e487b7100000000000000000000000000000000000000000000000000000000600052603160045260246000fd5b60019003818190600052602060002001600090559055505050565b6117aa61278e565b73ffffffffffffffffffffffffffffffffffffffff168273ffffffffffffffffffffffffffffffffffffffff161415611818576040517f08c379a000000000000000000000000000000000000000000000000000000000815260040161180f90614ae0565b60405180910390fd5b806005600061182561278e565b73ffffffffffffffffffffffffffffffffffffffff1673ffffffffffffffffffffffffffffffffffffffff16815260200190815260200160002060008473ffffffffffffffffffffffffffffffffffffffff1673ffffffffffffffffffffffffffffffffffffffff16815260200190815260200160002060006101000a81548160ff0219169083151502179055508173ffffffffffffffffffffffffffffffffffffffff166118d261278e565b73ffffffffffffffffffffffffffffffffffffffff167f17307eab39ab6107e8899845ad3d59bd9653f200f220920489ca2b5937696c318360405161191791906149b3565b60405180910390a35050565b6060600080600c8481548110611962577f4e487b7100000000000000000000000000000000000000000000000000000000600052603260045260246000fd5b9060005260206000209060020201600001805461197e9061510c565b80601f01602080910402602001604051908101604052809291908181526020018280546119aa9061510c565b80156119f75780601f106119cc576101008083540402835291602001916119f7565b820191906000526020600020905b8154815290600101906020018083116119da57829003601f168201915b505050505090506000600c8581548110611a3a577f4e487b7100000000000000000000000000000000000000000000000000000000600052603260045260246000fd5b90600052602060002090600202016001015490508181935093505050915091565b611a6c611a6661278e565b8361284f565b611aab576040517f08c379a0000000000000000000000000000000000000000000000000000000008152600401611aa290614d20565b60405180910390fd5b611ab784848484612b89565b50505050565b6000600f543411611b03576040517f08c379a0000000000000000000000000000000000000000000000000000000008152600401611afa90614d40565b60405180910390fd5b600015156014600084604051602001611b1c91906147d0565b60405160208183030381529060405280519060200120815260200190815260200160002060009054906101000a900460ff16151514611b90576040517f08c379a0000000000000000000000000000000000000000000000000000000008152600401611b8790614d00565b60405180910390fd5b60016014600084604051602001611ba791906147d0565b60405160208183030381529060405280519060200120815260200190815260200160002060006101000a81548160ff02191690831515021790555060006064423334604051602001611bfb9392919061480b565b6040516020818303038152906040528051906020012060001c611c1e91906151b5565b90506000611c2d338584612be5565b90508092505050919050565b6060611c4482612722565b611c83576040517f08c379a0000000000000000000000000000000000000000000000000000000008152600401611c7a90614ca0565b60405180910390fd5b6000611c8d612ce2565b90506000815111611cad5760405180602001604052806000815250611cd8565b80611cb784612cf9565b604051602001611cc89291906147e7565b6040516020818303038152906040525b915050919050565b600a60009054906101000a900473ffffffffffffffffffffffffffffffffffffffff1673ffffffffffffffffffffffffffffffffffffffff163373ffffffffffffffffffffffffffffffffffffffff16148015611d49575047600e5482611d479190614f89565b105b611d88576040517f08c379a0000000000000000000000000000000000000000000000000000000008152600401611d7f90614a60565b60405180910390fd5b600a60009054906101000a900473ffffffffffffffffffffffffffffffffffffffff1673ffffffffffffffffffffffffffffffffffffffff166108fc829081150290604051600060405180830381858888f19350505050158015611df0573d6000803e3d6000fd5b5050565b6013600082815260200190815260200160002054804210611e4a576040517f08c379a0000000000000000000000000000000000000000000000000000000008152600401611e4190614cc0565b60405180910390fd5b611e5433306125ac565b611e93576040517f08c379a0000000000000000000000000000000000000000000000000000000008152600401611e8a90614bc0565b60405180910390fd5b60106000838152602001908152602001600020543411611ee8576040517f08c379a0000000000000000000000000000000000000000000000000000000008152600401611edf90614b00565b60405180910390fd5b611ef182610cee565b73ffffffffffffffffffffffffffffffffffffffff163373ffffffffffffffffffffffffffffffffffffffff161415611f5f576040517f08c379a0000000000000000000000000000000000000000000000000000000008152600401611f5690614b20565b60405180910390fd5b34600e6000828254611f719190614f89565b9250508190555060006011600084815260200190815260200160002060009054906101000a900473ffffffffffffffffffffffffffffffffffffffff169050611fb983610cee565b73ffffffffffffffffffffffffffffffffffffffff168173ffffffffffffffffffffffffffffffffffffffff1614612046578073ffffffffffffffffffffffffffffffffffffffff166108fc60106000868152602001908152602001600020549081150290604051600060405180830381858888f19350505050158015612044573d6000803e3d6000fd5b505b336011600085815260200190815260200160002060006101000a81548173ffffffffffffffffffffffffffffffffffffffff021916908373ffffffffffffffffffffffffffffffffffffffff1602179055503460106000858152602001908152602001600020819055507fc4504bfebbf069537f312849f59dfb7c76c961197cbb5189eb71e0112bc2a196336010600086815260200190815260200160002054856040516120f693929190614938565b60405180910390a1505050565b6060600061211033610da0565b905060008167ffffffffffffffff811115612154577f4e487b7100000000000000000000000000000000000000000000000000000000600052604160045260246000fd5b6040519080825280602002602001820160405280156121825781602001602082028036833780820191505090505b50905060005b828110156121f25761219a3382610b6c565b8282815181106121d3577f4e487b7100000000000000000000000000000000000000000000000000000000600052603260045260246000fd5b60200260200101818152505080806121ea9061513e565b915050612188565b50809250505090565b6060600080600d8054905067ffffffffffffffff811115612245577f4e487b7100000000000000000000000000000000000000000000000000000000600052604160045260246000fd5b6040519080825280602002602001820160405280156122735781602001602082028036833780820191505090505b50905060005b600d8054905083101561232657600d83815481106122c0577f4e487b7100000000000000000000000000000000000000000000000000000000600052603260045260246000fd5b9060005260206000200154905080828481518110612307577f4e487b7100000000000000000000000000000000000000000000000000000000600052603260045260246000fd5b602002602001018181525050828061231e9061513e565b935050612279565b81935050505090565b60008060006060600080612341610aea565b871080156123af5750600073ffffffffffffffffffffffffffffffffffffffff166011600089815260200190815260200160002060009054906101000a900473ffffffffffffffffffffffffffffffffffffffff1673ffffffffffffffffffffffffffffffffffffffff1614155b6123ee576040517f08c379a00000000000000000000000000000000000000000000000000000000081526004016123e590614b60565b60405180910390fd5b6000601060008981526020019081526020016000205490506000601160008a815260200190815260200160002060009054906101000a900473ffffffffffffffffffffffffffffffffffffffff16905060006124498a610cee565b90506000600c8b81548110612487577f4e487b7100000000000000000000000000000000000000000000000000000000600052603260045260246000fd5b906000526020600020906002020160000180546124a39061510c565b80601f01602080910402602001604051908101604052809291908181526020018280546124cf9061510c565b801561251c5780601f106124f15761010080835404028352916020019161251c565b820191906000526020600020905b8154815290600101906020018083116124ff57829003601f168201915b505050505090506000600c8c8154811061255f577f4e487b7100000000000000000000000000000000000000000000000000000000600052603260045260246000fd5b90600052602060002090600202016001015490506000601360008e81526020019081526020016000205490508585858585859b509b509b509b509b509b5050505050505091939550919395565b6000600560008473ffffffffffffffffffffffffffffffffffffffff1673ffffffffffffffffffffffffffffffffffffffff16815260200190815260200160002060008373ffffffffffffffffffffffffffffffffffffffff1673ffffffffffffffffffffffffffffffffffffffff16815260200190815260200160002060009054906101000a900460ff16905092915050565b60007f80ac58cd000000000000000000000000000000000000000000000000000000007bffffffffffffffffffffffffffffffffffffffffffffffffffffffff1916827bffffffffffffffffffffffffffffffffffffffffffffffffffffffff1916148061270b57507f5b5e139f000000000000000000000000000000000000000000000000000000007bffffffffffffffffffffffffffffffffffffffffffffffffffffffff1916827bffffffffffffffffffffffffffffffffffffffffffffffffffffffff1916145b8061271b575061271a82612ea6565b5b9050919050565b60008073ffffffffffffffffffffffffffffffffffffffff166002600084815260200190815260200160002060009054906101000a900473ffffffffffffffffffffffffffffffffffffffff1673ffffffffffffffffffffffffffffffffffffffff1614159050919050565b600033905090565b816004600083815260200190815260200160002060006101000a81548173ffffffffffffffffffffffffffffffffffffffff021916908373ffffffffffffffffffffffffffffffffffffffff160217905550808273ffffffffffffffffffffffffffffffffffffffff1661280983610cee565b73ffffffffffffffffffffffffffffffffffffffff167f8c5be1e5ebec7d5bd14f71427d1e84f3dd0314c0f7b2291e5b200ac8c7c3b92560405160405180910390a45050565b600061285a82612722565b612899576040517f08c379a000000000000000000000000000000000000000000000000000000000815260040161289090614b40565b60405180910390fd5b60006128a483610cee565b90508073ffffffffffffffffffffffffffffffffffffffff168473ffffffffffffffffffffffffffffffffffffffff16148061291357508373ffffffffffffffffffffffffffffffffffffffff166128fb846108ac565b73ffffffffffffffffffffffffffffffffffffffff16145b80612924575061292381856125ac565b5b91505092915050565b8273ffffffffffffffffffffffffffffffffffffffff1661294d82610cee565b73ffffffffffffffffffffffffffffffffffffffff16146129a3576040517f08c379a000000000000000000000000000000000000000000000000000000000815260040161299a90614c80565b60405180910390fd5b600073ffffffffffffffffffffffffffffffffffffffff168273ffffffffffffffffffffffffffffffffffffffff161415612a13576040517f08c379a0000000000000000000000000000000000000000000000000000000008152600401612a0a90614ac0565b60405180910390fd5b612a1e838383612f10565b612a29600082612796565b6001600360008573ffffffffffffffffffffffffffffffffffffffff1673ffffffffffffffffffffffffffffffffffffffff1681526020019081526020016000206000828254612a799190615010565b925050819055506001600360008473ffffffffffffffffffffffffffffffffffffffff1673ffffffffffffffffffffffffffffffffffffffff1681526020019081526020016000206000828254612ad09190614f89565b92505081905550816002600083815260200190815260200160002060006101000a81548173ffffffffffffffffffffffffffffffffffffffff021916908373ffffffffffffffffffffffffffffffffffffffff160217905550808273ffffffffffffffffffffffffffffffffffffffff168473ffffffffffffffffffffffffffffffffffffffff167fddf252ad1be2c89b69c2b068fc378daa952ba7f163c4a11628f55a4df523b3ef60405160405180910390a4505050565b612b9484848461292d565b612ba084848484613024565b612bdf576040517f08c379a0000000000000000000000000000000000000000000000000000000008152600401612bd690614a40565b60405180910390fd5b50505050565b600080600c805490509050600c60405180604001604052808681526020018581525090806001815401808255809150506001900390600052602060002090600202016000909190919091506000820151816000019080519060200190612c4c929190613719565b50602082015181600101555050612c6385826131bb565b60156000828152602001908152602001600020859080600181540180825580915050600190039060005260206000200160009091909190916101000a81548173ffffffffffffffffffffffffffffffffffffffff021916908373ffffffffffffffffffffffffffffffffffffffff160217905550809150509392505050565b606060405180602001604052806000815250905090565b60606000821415612d41576040518060400160405280600181526020017f30000000000000000000000000000000000000000000000000000000000000008152509050612ea1565b600082905060005b60008214612d73578080612d5c9061513e565b915050600a82612d6c9190614fdf565b9150612d49565b60008167ffffffffffffffff811115612db5577f4e487b7100000000000000000000000000000000000000000000000000000000600052604160045260246000fd5b6040519080825280601f01601f191660200182016040528015612de75781602001600182028036833780820191505090505b5090505b60008514612e9a57600182612e009190615010565b9150600a85612e0f91906151b5565b6030612e1b9190614f89565b60f81b818381518110612e57577f4e487b7100000000000000000000000000000000000000000000000000000000600052603260045260246000fd5b60200101907effffffffffffffffffffffffffffffffffffffffffffffffffffffffffffff1916908160001a905350600a85612e939190614fdf565b9450612deb565b8093505050505b919050565b60007f01ffc9a7000000000000000000000000000000000000000000000000000000007bffffffffffffffffffffffffffffffffffffffffffffffffffffffff1916827bffffffffffffffffffffffffffffffffffffffffffffffffffffffff1916149050919050565b612f1b838383613389565b600073ffffffffffffffffffffffffffffffffffffffff168373ffffffffffffffffffffffffffffffffffffffff161415612f5e57612f598161338e565b612f9d565b8173ffffffffffffffffffffffffffffffffffffffff168373ffffffffffffffffffffffffffffffffffffffff1614612f9c57612f9b83826133d7565b5b5b600073ffffffffffffffffffffffffffffffffffffffff168273ffffffffffffffffffffffffffffffffffffffff161415612fe057612fdb81613544565b61301f565b8273ffffffffffffffffffffffffffffffffffffffff168273ffffffffffffffffffffffffffffffffffffffff161461301e5761301d8282613687565b5b5b505050565b60006130458473ffffffffffffffffffffffffffffffffffffffff16613706565b156131ae578373ffffffffffffffffffffffffffffffffffffffff1663150b7a0261306e61278e565b8786866040518563ffffffff1660e01b815260040161309094939291906148b5565b602060405180830381600087803b1580156130aa57600080fd5b505af19250505080156130db57506040513d601f19601f820116820180604052508101906130d89190613ac5565b60015b61315e573d806000811461310b576040519150601f19603f3d011682016040523d82523d6000602084013e613110565b606091505b50600081511415613156576040517f08c379a000000000000000000000000000000000000000000000000000000000815260040161314d90614a40565b60405180910390fd5b805181602001fd5b63150b7a0260e01b7bffffffffffffffffffffffffffffffffffffffffffffffffffffffff1916817bffffffffffffffffffffffffffffffffffffffffffffffffffffffff1916149150506131b3565b600190505b949350505050565b600073ffffffffffffffffffffffffffffffffffffffff168273ffffffffffffffffffffffffffffffffffffffff16141561322b576040517f08c379a000000000000000000000000000000000000000000000000000000000815260040161322290614c20565b60405180910390fd5b61323481612722565b15613274576040517f08c379a000000000000000000000000000000000000000000000000000000000815260040161326b90614a80565b60405180910390fd5b61328060008383612f10565b6001600360008473ffffffffffffffffffffffffffffffffffffffff1673ffffffffffffffffffffffffffffffffffffffff16815260200190815260200160002060008282546132d09190614f89565b92505081905550816002600083815260200190815260200160002060006101000a81548173ffffffffffffffffffffffffffffffffffffffff021916908373ffffffffffffffffffffffffffffffffffffffff160217905550808273ffffffffffffffffffffffffffffffffffffffff16600073ffffffffffffffffffffffffffffffffffffffff167fddf252ad1be2c89b69c2b068fc378daa952ba7f163c4a11628f55a4df523b3ef60405160405180910390a45050565b505050565b6008805490506009600083815260200190815260200160002081905550600881908060018154018082558091505060019003906000526020600020016000909190919091505550565b600060016133e484610da0565b6133ee9190615010565b90506000600760008481526020019081526020016000205490508181146134d3576000600660008673ffffffffffffffffffffffffffffffffffffffff1673ffffffffffffffffffffffffffffffffffffffff168152602001908152602001600020600084815260200190815260200160002054905080600660008773ffffffffffffffffffffffffffffffffffffffff1673ffffffffffffffffffffffffffffffffffffffff168152602001908152602001600020600084815260200190815260200160002081905550816007600083815260200190815260200160002081905550505b6007600084815260200190815260200160002060009055600660008573ffffffffffffffffffffffffffffffffffffffff1673ffffffffffffffffffffffffffffffffffffffff16815260200190815260200160002060008381526020019081526020016000206000905550505050565b600060016008805490506135589190615010565b90506000600960008481526020019081526020016000205490506000600883815481106135ae577f4e487b7100000000000000000000000000000000000000000000000000000000600052603260045260246000fd5b9060005260206000200154905080600883815481106135f6577f4e487b7100000000000000000000000000000000000000000000000000000000600052603260045260246000fd5b90600052602060002001819055508160096000838152602001908152602001600020819055506009600085815260200190815260200160002060009055600880548061366b577f4e487b7100000000000000000000000000000000000000000000000000000000600052603160045260246000fd5b6001900381819060005260206000200160009055905550505050565b600061369283610da0565b905081600660008573ffffffffffffffffffffffffffffffffffffffff1673ffffffffffffffffffffffffffffffffffffffff168152602001908152602001600020600083815260200190815260200160002081905550806007600084815260200190815260200160002081905550505050565b600080823b905060008111915050919050565b8280546137259061510c565b90600052602060002090601f016020900481019282613747576000855561378e565b82601f1061376057805160ff191683800117855561378e565b8280016001018555821561378e579182015b8281111561378d578251825591602001919060010190613772565b5b50905061379b919061379f565b5090565b5b808211156137b85760008160009055506001016137a0565b5090565b60006137cf6137ca84614e74565b614e43565b9050828152602081018484840111156137e757600080fd5b6137f28482856150ca565b509392505050565b600061380d61380884614ea4565b614e43565b90508281526020810184848401111561382557600080fd5b6138308482856150ca565b509392505050565b600081359050613847816152c0565b92915050565b60008135905061385c816152d7565b92915050565b600081359050613871816152ee565b92915050565b600081519050613886816152ee565b92915050565b600082601f83011261389d57600080fd5b81356138ad8482602086016137bc565b91505092915050565b600082601f8301126138c757600080fd5b81356138d78482602086016137fa565b91505092915050565b6000813590506138ef81615305565b92915050565b60006020828403121561390757600080fd5b600061391584828501613838565b91505092915050565b6000806040838503121561393157600080fd5b600061393f85828601613838565b925050602061395085828601613838565b9150509250929050565b60008060006060848603121561396f57600080fd5b600061397d86828701613838565b935050602061398e86828701613838565b925050604061399f868287016138e0565b9150509250925092565b600080600080608085870312156139bf57600080fd5b60006139cd87828801613838565b94505060206139de87828801613838565b93505060406139ef878288016138e0565b925050606085013567ffffffffffffffff811115613a0c57600080fd5b613a188782880161388c565b91505092959194509250565b60008060408385031215613a3757600080fd5b6000613a4585828601613838565b9250506020613a568582860161384d565b9150509250929050565b60008060408385031215613a7357600080fd5b6000613a8185828601613838565b9250506020613a92858286016138e0565b9150509250929050565b600060208284031215613aae57600080fd5b6000613abc84828501613862565b91505092915050565b600060208284031215613ad757600080fd5b6000613ae584828501613877565b91505092915050565b600060208284031215613b0057600080fd5b600082013567ffffffffffffffff811115613b1a57600080fd5b613b26848285016138b6565b91505092915050565b600060208284031215613b4157600080fd5b6000613b4f848285016138e0565b91505092915050565b600080600060608486031215613b6d57600080fd5b6000613b7b868287016138e0565b9350506020613b8c868287016138e0565b9250506040613b9d868287016138e0565b9150509250925092565b6000613bb38383613be6565b60208301905092915050565b6000613bcb838361479b565b60208301905092915050565b613be081615056565b82525050565b613bef81615044565b82525050565b613bfe81615044565b82525050565b613c15613c1082615044565b615187565b82525050565b6000613c2682614ef4565b613c308185614f3a565b9350613c3b83614ed4565b8060005b83811015613c6c578151613c538882613ba7565b9750613c5e83614f20565b925050600181019050613c3f565b5085935050505092915050565b6000613c8482614eff565b613c8e8185614f4b565b9350613c9983614ee4565b8060005b83811015613cca578151613cb18882613bbf565b9750613cbc83614f2d565b925050600181019050613c9d565b5085935050505092915050565b613ce081615068565b82525050565b6000613cf182614f0a565b613cfb8185614f5c565b9350613d0b8185602086016150d9565b613d14816152a2565b840191505092915050565b6000613d2a82614f15565b613d348185614f6d565b9350613d448185602086016150d9565b613d4d816152a2565b840191505092915050565b6000613d6382614f15565b613d6d8185614f7e565b9350613d7d8185602086016150d9565b80840191505092915050565b6000613d96602b83614f6d565b91507f455243373231456e756d657261626c653a206f776e657220696e646578206f7560008301527f74206f6620626f756e64730000000000000000000000000000000000000000006020830152604082019050919050565b6000613dfc603283614f6d565b91507f4552433732313a207472616e7366657220746f206e6f6e20455243373231526560008301527f63656976657220696d706c656d656e74657200000000000000000000000000006020830152604082019050919050565b6000613e62602283614f6d565b91507f4f6e6c792067616d65206f776e65722063616e20676574207468652070726f6660008301527f69740000000000000000000000000000000000000000000000000000000000006020830152604082019050919050565b6000613ec8601c83614f6d565b91507f4552433732313a20746f6b656e20616c7265616479206d696e746564000000006000830152602082019050919050565b6000613f08602783614f6d565b91507f4f6e6c79206f776e6572206f66204e46542063616e2063726561746520616e2060008301527f61756374696f6e000000000000000000000000000000000000000000000000006020830152604082019050919050565b6000613f6e602483614f6d565b91507f4552433732313a207472616e7366657220746f20746865207a65726f2061646460008301527f72657373000000000000000000000000000000000000000000000000000000006020830152604082019050919050565b6000613fd4601983614f6d565b91507f4552433732313a20617070726f766520746f2063616c6c6572000000000000006000830152602082019050919050565b6000614014602f83614f6d565b91507f596f75722070726963652073686f756c6420686967686572207468616e20746860008301527f652063757272656e7420707269636500000000000000000000000000000000006020830152604082019050919050565b600061407a601983614f6d565b91507f43616e6e6f742062696420796f7572206f776e206974656d73000000000000006000830152602082019050919050565b60006140ba602c83614f6d565b91507f4552433732313a206f70657261746f7220717565727920666f72206e6f6e657860008301527f697374656e7420746f6b656e00000000000000000000000000000000000000006020830152604082019050919050565b6000614120602b83614f6d565b91507f546865206974656d206973206e6f74206265696e6720736f6c64206f7220646f60008301527f65736e27742065786973740000000000000000000000000000000000000000006020830152604082019050919050565b6000614186603883614f6d565b91507f4552433732313a20617070726f76652063616c6c6572206973206e6f74206f7760008301527f6e6572206e6f7220617070726f76656420666f7220616c6c00000000000000006020830152604082019050919050565b60006141ec601983614f6d565b91507f5468652061756374696f6e20686173206e6f7420656e646564000000000000006000830152602082019050919050565b600061422c602d83614f6d565b91507f506c65617365206772616e7420617070726f76616c206f6620616c6c20796f7560008301527f72204e4654732066697273742e000000000000000000000000000000000000006020830152604082019050919050565b6000614292602a83614f6d565b91507f4552433732313a2062616c616e636520717565727920666f7220746865207a6560008301527f726f2061646472657373000000000000000000000000000000000000000000006020830152604082019050919050565b60006142f8602983614f6d565b91507f4552433732313a206f776e657220717565727920666f72206e6f6e657869737460008301527f656e7420746f6b656e00000000000000000000000000000000000000000000006020830152604082019050919050565b600061435e602083614f6d565b91507f4552433732313a206d696e7420746f20746865207a65726f20616464726573736000830152602082019050919050565b600061439e603183614f6d565b91507f596f75206d7573742062652074686520626964646572206f72206f776e65722060008301527f746f20636c61696d20796f7572204e46540000000000000000000000000000006020830152604082019050919050565b6000614404602c83614f6d565b91507f4552433732313a20617070726f76656420717565727920666f72206e6f6e657860008301527f697374656e7420746f6b656e00000000000000000000000000000000000000006020830152604082019050919050565b600061446a602983614f6d565b91507f4552433732313a207472616e73666572206f6620746f6b656e2074686174206960008301527f73206e6f74206f776e00000000000000000000000000000000000000000000006020830152604082019050919050565b60006144d0602f83614f6d565b91507f4552433732314d657461646174613a2055524920717565727920666f72206e6f60008301527f6e6578697374656e7420746f6b656e00000000000000000000000000000000006020830152604082019050919050565b6000614536601e83614f6d565b91507f5468652061756374696f6e2068617320616c726561647920656e6465642100006000830152602082019050919050565b6000614576602183614f6d565b91507f4552433732313a20617070726f76616c20746f2063757272656e74206f776e6560008301527f72000000000000000000000000000000000000000000000000000000000000006020830152604082019050919050565b60006145dc601983614f6d565b91507f54686973206e616d6520686173206265656420746f6b656e21000000000000006000830152602082019050919050565b600061461c603183614f6d565b91507f4552433732313a207472616e736665722063616c6c6572206973206e6f74206f60008301527f776e6572206e6f7220617070726f7665640000000000000000000000000000006020830152604082019050919050565b6000614682601e83614f6d565b91507f4e46542070726963653a206d6f7265207468616e2031303030303077656900006000830152602082019050919050565b60006146c2602c83614f6d565b91507f455243373231456e756d657261626c653a20676c6f62616c20696e646578206f60008301527f7574206f6620626f756e647300000000000000000000000000000000000000006020830152604082019050919050565b6000614728601883614f6d565b91507f54696d652073686f756c64203e3d2031206d696e7574657300000000000000006000830152602082019050919050565b6000614768601783614f6d565b91507f54686973206974656d20686173206265656e20736f6c640000000000000000006000830152602082019050919050565b6147a4816150c0565b82525050565b6147b3816150c0565b82525050565b6147ca6147c5826150c0565b6151ab565b82525050565b60006147dc8284613d58565b915081905092915050565b60006147f38285613d58565b91506147ff8284613d58565b91508190509392505050565b600061481782866147b9565b6020820191506148278285613c04565b60148201915061483782846147b9565b602082019150819050949350505050565b600060208201905061485d6000830184613bf5565b92915050565b60006020820190506148786000830184613bd7565b92915050565b60006060820190506148936000830186613bf5565b6148a06020830185613bf5565b6148ad60408301846147aa565b949350505050565b60006080820190506148ca6000830187613bf5565b6148d76020830186613bf5565b6148e460408301856147aa565b81810360608301526148f68184613ce6565b905095945050505050565b60006060820190506149166000830186613bf5565b61492360208301856147aa565b6149306040830184613cd7565b949350505050565b600060608201905061494d6000830186613bf5565b61495a60208301856147aa565b61496760408301846147aa565b949350505050565b600060208201905081810360008301526149898184613c1b565b905092915050565b600060208201905081810360008301526149ab8184613c79565b905092915050565b60006020820190506149c86000830184613cd7565b92915050565b600060208201905081810360008301526149e88184613d1f565b905092915050565b60006040820190508181036000830152614a0a8185613d1f565b9050614a1960208301846147aa565b9392505050565b60006020820190508181036000830152614a3981613d89565b9050919050565b60006020820190508181036000830152614a5981613def565b9050919050565b60006020820190508181036000830152614a7981613e55565b9050919050565b60006020820190508181036000830152614a9981613ebb565b9050919050565b60006020820190508181036000830152614ab981613efb565b9050919050565b60006020820190508181036000830152614ad981613f61565b9050919050565b60006020820190508181036000830152614af981613fc7565b9050919050565b60006020820190508181036000830152614b1981614007565b9050919050565b60006020820190508181036000830152614b398161406d565b9050919050565b60006020820190508181036000830152614b59816140ad565b9050919050565b60006020820190508181036000830152614b7981614113565b9050919050565b60006020820190508181036000830152614b9981614179565b9050919050565b60006020820190508181036000830152614bb9816141df565b9050919050565b60006020820190508181036000830152614bd98161421f565b9050919050565b60006020820190508181036000830152614bf981614285565b9050919050565b60006020820190508181036000830152614c19816142eb565b9050919050565b60006020820190508181036000830152614c3981614351565b9050919050565b60006020820190508181036000830152614c5981614391565b9050919050565b60006020820190508181036000830152614c79816143f7565b9050919050565b60006020820190508181036000830152614c998161445d565b9050919050565b60006020820190508181036000830152614cb9816144c3565b9050919050565b60006020820190508181036000830152614cd981614529565b9050919050565b60006020820190508181036000830152614cf981614569565b9050919050565b60006020820190508181036000830152614d19816145cf565b9050919050565b60006020820190508181036000830152614d398161460f565b9050919050565b60006020820190508181036000830152614d5981614675565b9050919050565b60006020820190508181036000830152614d79816146b5565b9050919050565b60006020820190508181036000830152614d998161471b565b9050919050565b60006020820190508181036000830152614db98161475b565b9050919050565b6000602082019050614dd560008301846147aa565b92915050565b600060c082019050614df060008301896147aa565b614dfd6020830188613bf5565b614e0a6040830187613bf5565b8181036060830152614e1c8186613d1f565b9050614e2b60808301856147aa565b614e3860a08301846147aa565b979650505050505050565b6000604051905081810181811067ffffffffffffffff82111715614e6a57614e69615273565b5b8060405250919050565b600067ffffffffffffffff821115614e8f57614e8e615273565b5b601f19601f8301169050602081019050919050565b600067ffffffffffffffff821115614ebf57614ebe615273565b5b601f19601f8301169050602081019050919050565b6000819050602082019050919050565b6000819050602082019050919050565b600081519050919050565b600081519050919050565b600081519050919050565b600081519050919050565b6000602082019050919050565b6000602082019050919050565b600082825260208201905092915050565b600082825260208201905092915050565b600082825260208201905092915050565b600082825260208201905092915050565b600081905092915050565b6000614f94826150c0565b9150614f9f836150c0565b9250827fffffffffffffffffffffffffffffffffffffffffffffffffffffffffffffffff03821115614fd457614fd36151e6565b5b828201905092915050565b6000614fea826150c0565b9150614ff5836150c0565b92508261500557615004615215565b5b828204905092915050565b600061501b826150c0565b9150615026836150c0565b925082821015615039576150386151e6565b5b828203905092915050565b600061504f826150a0565b9050919050565b6000615061826150a0565b9050919050565b60008115159050919050565b60007fffffffff0000000000000000000000000000000000000000000000000000000082169050919050565b600073ffffffffffffffffffffffffffffffffffffffff82169050919050565b6000819050919050565b82818337600083830152505050565b60005b838110156150f75780820151818401526020810190506150dc565b83811115615106576000848401525b50505050565b6000600282049050600182168061512457607f821691505b6020821081141561513857615137615244565b5b50919050565b6000615149826150c0565b91507fffffffffffffffffffffffffffffffffffffffffffffffffffffffffffffffff82141561517c5761517b6151e6565b5b600182019050919050565b600061519282615199565b9050919050565b60006151a4826152b3565b9050919050565b6000819050919050565b60006151c0826150c0565b91506151cb836150c0565b9250826151db576151da615215565b5b828206905092915050565b7f4e487b7100000000000000000000000000000000000000000000000000000000600052601160045260246000fd5b7f4e487b7100000000000000000000000000000000000000000000000000000000600052601260045260246000fd5b7f4e487b7100000000000000000000000000000000000000000000000000000000600052602260045260246000fd5b7f4e487b7100000000000000000000000000000000000000000000000000000000600052604160045260246000fd5b6000601f19601f8301169050919050565b60008160601b9050919050565b6152c981615044565b81146152d457600080fd5b50565b6152e081615068565b81146152eb57600080fd5b50565b6152f781615074565b811461530257600080fd5b50565b61530e816150c0565b811461531957600080fd5b5056fea2646970667358221220f205fd819210c404d81f58a0d3e57528e36a998cbc9b47a296ccc196ac55857364736f6c63430008000033",
  "immutableReferences": {},
  "source": "// SPDX-License-Identifier: SimPL-2.0\npragma solidity ^0.8.0;\nimport \"../client/node_modules/openzeppelin-solidity/contracts/token/ERC721/extensions/ERC721Enumerable.sol\";\ncontract ArmorAuction is ERC721Enumerable{\n    \n    \n    struct Magic_weapon{\n        string name;\n        uint rarity;//0-100, \n    }\n    address payable public game_owner;//\n    address public contract_address;\n\n    Magic_weapon[] weapon_pool;//IDID\n\n    uint256[] onAuctions;//ID1\n\n    uint bidders_money;//\n    //\n    constructor() ERC721(\"LORDCOIN\", \"HCY\") payable{\n        game_owner = payable(msg.sender);\n        bidders_money = 0;\n        contract_address = address(this);\n    }\n    //NFT\n\n    uint soloPrice = 100000 wei;\n    mapping (uint256 => uint256) private _is_selling;//id\n    mapping (uint256 => address payable) private _is_bidding;//\n    mapping (uint256 => uint256) private onAuction_index;//idonAuction\n    mapping (uint256 => uint256) private time_bound;//id\n    mapping (bytes32 => bool) private name_unique;\n    mapping (uint256 => address[]) private belongs_to;// \n\n    event start_auction(address player, uint startprice, uint ID, uint timestart, uint timeend);\n    event success_bid(address bidder, uint his_price, uint ID);//\n    \n    event auction_terminated(address winner, uint his_price, bool successed);//NFT\n    \n    //NFT\n    function forgeWeapon(address player, string memory weapon_name, uint _rarity) \n    private\n    returns (uint256) \n    {\n        uint256 newItemId = weapon_pool.length;//NFTIDpool\n        weapon_pool.push(Magic_weapon(weapon_name, _rarity));\n        _mint(player, newItemId);//NFT\n        belongs_to[newItemId].push(player);\n        return newItemId;//ID\n    }\n    //NFTNFT\n    function applyWeapon(string memory weapon_name) public payable returns(uint256){\n        require(msg.value > soloPrice, \"NFT price: more than 100000wei\");\n        require(name_unique[keccak256(abi.encodePacked(weapon_name))] == false, \"This name has beed token!\");\n        //:0-100\n        name_unique[keccak256(abi.encodePacked(weapon_name))] = true;\n        uint random = uint(keccak256(abi.encodePacked(block.timestamp, msg.sender, msg.value))) % 100;\n        uint256 ID = forgeWeapon(msg.sender, weapon_name, random);\n        return ID;\n    }\n    //\n    function is_On_Auction(uint256 id) public view returns(bool){\n        if (_is_selling[id] != 0)\n            return true;\n        else\n            return false;\n    }\n    //\n    function showBelongings(uint256 id) public view returns(address[] memory owners){\n        return belongs_to[id];\n    }\n    //NFTID\n    function see_NFTS() public view returns(uint[] memory){\n        //NFT\n        uint balance = balanceOf(msg.sender);\n        uint256[] memory ret = new uint[](balance);\n        for (uint i = 0; i < balance; i++)\n        {\n            ret[i] = uint256(tokenOfOwnerByIndex(msg.sender, i));\n        }\n        return ret;\n    }\n    //NFTname\n    //: uint ID\n    function see_NFT_info(uint ID) public view returns(string memory, uint){\n        string memory s  = weapon_pool[ID].name;\n        uint rare = weapon_pool[ID].rarity;\n        return (s, rare);\n    }\n\n    //\n    function see_Profit() public view returns(uint){\n        return address(this).balance - bidders_money;\n    }\n    \n    //\n    function money_Feedback(uint _money) public{\n        require(msg.sender == game_owner && _money + bidders_money < address(this).balance, \"Only game owner can get the profit\");\n        game_owner.transfer(_money);\n        return;\n    }\n\n\n    //\n    modifier onlyOwnerOf(uint weapon_Id)\n    {\n        require(msg.sender == ownerOf(weapon_Id), \"Only owner of NFT can create an auction\");\n        _;\n    }\n    //time\n    modifier onlyAfter(uint256 _time) \n    {\n        require(block.timestamp > _time, \"The auction is still going!\");\n        _;\n    }\n    //time\n    modifier onlyBefore(uint256 _time)\n    {\n        require(block.timestamp < _time, \"The auction has already ended!\");\n        _;\n    }\n\n\n    //\n    //NFTID\n    function startAuction(uint256 weapon_Id, uint256 original_price, uint256 ddl) public onlyOwnerOf(weapon_Id)\n    {\n        require(isApprovedForAll(msg.sender, address(this)) == true, \"Please grant approval of all your NFTs first.\");\n        require( _is_bidding[weapon_Id] == address(0) , \"This item has been sold\");\n        require(ddl > 1 minutes, \"Time should >= 1 minutes\");\n        _is_selling[weapon_Id] = original_price;\n        _is_bidding[weapon_Id] = payable(msg.sender);//bidderNFT\n        time_bound[weapon_Id] = block.timestamp + ddl;//\n        //onAuction\n        onAuction_index[weapon_Id] = onAuctions.length;\n        onAuctions.push(weapon_Id);\n    }\n\n    //,\n    //ID, \n    //onAuctions0\n    function seeAllAuction() public view returns(uint[] memory){\n        uint i = 0;\n        uint[] memory ret = new uint[](onAuctions.length);\n        uint on;\n        for (; i < onAuctions.length; i++)\n        {\n            on = onAuctions[i];\n            ret[i] = on;\n        }\n        return ret;\n    }\n    //ID\n    //ID\n    // \n    function see_Auction_Info(uint256 ID) public view returns(uint, address, address, string memory, uint, uint){\n        require(ID < totalSupply() && _is_bidding[ID] != address(0), \"The item is not being sold or doesn't exist\");\n        uint price = _is_selling[ID];\n        address bidderNow = _is_bidding[ID];\n        address owner = ownerOf(ID);\n        string memory name = weapon_pool[ID].name;\n        uint r = weapon_pool[ID].rarity;\n        uint ddl = time_bound[ID];\n        return (price, bidderNow, owner, name, r, ddl);\n    }\n    \n    \n    //\n    //ID, \n    //;;\n    function bidForWeapon(uint256 ID) public payable onlyBefore(time_bound[ID]){\n        require(isApprovedForAll(msg.sender, address(this)), \"Please grant approval of all your NFTs first.\");\n        require(msg.value > _is_selling[ID], \"Your price should higher than the current price\");\n        require(msg.sender != ownerOf(ID), \"Cannot bid your own items\");\n        bidders_money += msg.value;\n        //bidder,\n        address payable lastbidder = _is_bidding[ID];\n        if (lastbidder != ownerOf(ID)){\n            payable(lastbidder).transfer(_is_selling[ID]);\n        }\n        //\n        _is_bidding[ID] = payable(msg.sender);\n        _is_selling[ID] = msg.value;\n        //\n        emit success_bid(msg.sender, _is_selling[ID], ID);\n    }\n    //NFTID\n    //, \n    //\n    function claimAuction(uint256 weapon_Id) public\n    {\n        require(msg.sender == _is_bidding[weapon_Id], \"You must be the bidder or owner to claim your NFT\");\n        require(block.timestamp > time_bound[weapon_Id], \"The auction has not ended\");\n        //, \n        if (msg.sender != ownerOf(weapon_Id))\n        {\n            //,\n            payable(ownerOf(weapon_Id)).transfer(_is_selling[weapon_Id]);\n            //\n            ArmorAuction(this).safeTransferFrom(ownerOf(weapon_Id), msg.sender, weapon_Id);\n            //\n            bidders_money -= _is_selling[weapon_Id];\n            //: \n            belongs_to[weapon_Id].push(msg.sender);\n            emit auction_terminated(msg.sender, _is_selling[weapon_Id], true);\n        }\n        else\n        {\n            //\n            emit auction_terminated(msg.sender, _is_selling[weapon_Id], false);\n        }\n        //\n        _is_selling[weapon_Id] = 0;\n        _is_bidding[weapon_Id] = payable(address(0));\n        time_bound[weapon_Id] = 1 minutes;\n        //onAuction:\n        uint index = onAuction_index[weapon_Id];\n        uint lastindex = onAuctions.length - 1;\n        if (index != lastindex)\n        {\n            //\n            uint256 temp = onAuctions[index];//ID\n            uint256 tempID = onAuctions[lastindex];//ID\n            onAuctions[index] = onAuctions[lastindex];\n            onAuctions[lastindex] = temp;\n            //ID\n            onAuction_index[tempID] = index;\n        }\n        onAuctions.pop();\n    }\n\n}",
  "sourcePath": "D:\\LORD\\react-boxc\\contracts\\ArmorAuction.sol",
  "compiler": {
    "name": "solc",
    "version": "0.8.0+commit.c7dfd78e.Emscripten.clang"
  },
  "schemaVersion": "3.4.3",
  "updatedAt": "2021-11-03T14:59:37.960Z",
  "devdoc": {
    "kind": "dev",
    "methods": {
      "approve(address,uint256)": {
        "details": "See {IERC721-approve}."
      },
      "balanceOf(address)": {
        "details": "See {IERC721-balanceOf}."
      },
      "getApproved(uint256)": {
        "details": "See {IERC721-getApproved}."
      },
      "isApprovedForAll(address,address)": {
        "details": "See {IERC721-isApprovedForAll}."
      },
      "name()": {
        "details": "See {IERC721Metadata-name}."
      },
      "ownerOf(uint256)": {
        "details": "See {IERC721-ownerOf}."
      },
      "safeTransferFrom(address,address,uint256)": {
        "details": "See {IERC721-safeTransferFrom}."
      },
      "safeTransferFrom(address,address,uint256,bytes)": {
        "details": "See {IERC721-safeTransferFrom}."
      },
      "setApprovalForAll(address,bool)": {
        "details": "See {IERC721-setApprovalForAll}."
      },
      "supportsInterface(bytes4)": {
        "details": "See {IERC165-supportsInterface}."
      },
      "symbol()": {
        "details": "See {IERC721Metadata-symbol}."
      },
      "tokenByIndex(uint256)": {
        "details": "See {IERC721Enumerable-tokenByIndex}."
      },
      "tokenOfOwnerByIndex(address,uint256)": {
        "details": "See {IERC721Enumerable-tokenOfOwnerByIndex}."
      },
      "tokenURI(uint256)": {
        "details": "See {IERC721Metadata-tokenURI}."
      },
      "totalSupply()": {
        "details": "See {IERC721Enumerable-totalSupply}."
      },
      "transferFrom(address,address,uint256)": {
        "details": "See {IERC721-transferFrom}."
      }
    },
    "version": 1
  },
  "userdoc": {
    "kind": "user",
    "methods": {},
    "version": 1
  }
}